:020000041000EA
:10000000002008205D0100101B0100101D010010E0
:100010001101001011010010110100101101001058
:100020001901001019010010190100101F01001022
:10003000110100101901001021010010230100100E
:100040001101001011010010110100101101001028
:100050001101001011010010110100101101001018
:100060001101001011010010110100101101001008
:100070001101001011010010697900101101001028
:1000800011010010110100101101001011010010E8
:1000900011010010110100101101001011010010D8
:1000A00011010010110100101101001011010010C8
:1000B00011010010110100101101001011010010B8
:1000C00011010010110100101101001011010010A8
:1000D0001101001011010010110100101101001098
:1000E0001101001011010010110100101101001088
:1000F0001101001011010010110100101101001078
:100100001101001011010010110100101101001067
:10011000EFF30580103800BE00BE00BE00BE00BE7A
:1001200000BE00BEF2EB8871202D0510482D051091
:10013000A001001090A31AE7D3DEFFFF42012110B7
:10014000FF010000F8410500793512AB4FF00000C7
:100150001E49086006C881F3088810474FF05040D8
:10016000006810B14FF00000F2E70DA40ECC00299A
:1001700002D000F012F8F9E71549164A002000E015
:1001800001C19142FCD11449884714498847144958
:10019000884700BEFDE701C901C29A42FBD3704700
:1001A000482D051010010020F816002030430510DE
:1001B000000008200000082030430510001008202F
:1001C00000100820000000007047000008ED00E06B
:1001D000F8160020548C0320F5750010958100104E
:1001E000ED750010F8B500BF064B0749C91A891014
:1001F00048BF0131491003D0044B0BB101481847E7
:10020000704700BFF8160020F8160020000000001C
:1002100008B5054B1BB105490548AFF30080BDE8A3
:100220000840FFF7E1BF00BF000000003C8C032046
:1002300034AE001000000000384B98423FD010D878
:100240004BF6803398422FD0354B984221D04AF656
:100250004443984203D108294AD004293AD00020C7
:100260007047304B98420BD02F4B9842F7D1022960
:10027000F5D12E4B03F13000002A08BF1846704715
:100280000229ECD12A4B03F5A870002A08BF1846B2
:100290007047042925D00229E1D1264B03F5A87027
:1002A000002A08BF1846704708292FD00429D6D144
:1002B000214B03F5D870002A08BF1846704704295F
:1002C0001DD00229CBD11D4B03F1C000002A08BF6D
:1002D000184670471A4B03F1C000002A08BF1846A1
:1002E0007047184B03F59070002A08BF18467047F6
:1002F000154B03F1C000002A08BF18467047134B86
:1003000003F5A870002A08BF18467047104BA3F5E4
:10031000A870002A08BF1846704700BF0077010088
:100320008858010010B1020000EE0200C0B50010B4
:1003300040B40010E0B30010D0B4001060B500105D
:1003400050B3001080B30010F0B2001000B50010E0
:1003500070B4001002290FD0032909D0012902D15D
:100360001022074B5A6003298CBF002001207047E0
:100370002022034B5A60F6E71822014B5A60F2E73D
:10038000F816002003289DBF034B03EB8003D3F82E
:10039000BC030248704700BFF0B200109CB00010D0
:1003A00003BD00BF894B0246997F30B511B1988BD0
:1003B000904256D093F83A0010B11C8F94427DD0F1
:1003C00093F856406CB1B3F854C0944500F0BC802B
:1003D00093F87250ADBB49B100280CBF0121032135
:1003E00004E093F8725065BB01B1411C7848C1EB41
:1003F000C10CB2F5007F00EB8C004FEAC10E4FEA52
:100400008C0C75D035D8802A00F0C98058D8202AA5
:1004100000F09C80402A49D120249C44ACF8204024
:100420003024ACF82C406B4CACF8302004F1600563
:10043000CCF8284004F5B074CCF82450CCF8344003
:1004400034E0B3F87050954208BF03230AD0002966
:10045000CCD0002800F0B8800221002CC6D00020AB
:1004600030BD00235C48C3EBC30300EB83000430C2
:1004700030BDB2F5006F52D0B2F5805F7AD0B2F5E0
:10048000806F13D14FF400749C44ACF820404FF4BB
:10049000E074ACF82C40514CACF83020CCF828403B
:1004A0004F4CCCF824404F4CCCF83440AEEB010E0E
:1004B000012103EB8E039A83997730BD0123D1E7A5
:1004C000B2F5807FF2D180249C44ACF82040D02447
:1004D000ACF82C40444CACF8302004F5D075CCF886
:1004E000284004F5B464CCF82450CCF83440DDE75F
:1004F0004FF480749C44ACF820404FF4DC74ACF8AA
:100500002C403A4CACF8302004F55C75CCF828400F
:1005100004F53764CCF82450CCF83440C6E74FF4E7
:1005200080649C44ACF820404FF4E164ACF82C406B
:100530002F4CACF83020CCF828402E4CCCF824407E
:100540002D4CCCF83440B1E702238BE710249C44B7
:10055000ACF820401424ACF82C40284CACF83020E7
:1005600004F12805CCF82840A834CCF82450CCF865
:1005700034409BE74FF400649C44ACF820404FF4B7
:100580006E64ACF82C401E4CACF83020CCF82840FF
:100590001C4CCCF824401C4CCCF8344086E740245A
:1005A0009C44ACF820403824ACF82C40174CACF8F4
:1005B000302004F17005CCF8284004F51C74CCF808
:1005C0002450CCF8344071E701210FE7F8160020E1
:1005D00018170020CCE9001014170020CCC400101C
:1005E00044EF001018BD0410BCDB00104CC8001014
:1005F000BCB6001044FF001018CD04102CEC001005
:10060000441F0110043D011018ED04105CE50010BA
:100610002DE9F04F2DED108B93B00E930346DFEDD7
:10062000C5BA8A468B46CDE90F20043311934FF0AB
:10063000000E4FEADB0707EB87014FEACB00009083
:10064000C800C7EBC701109B4FEAC7094FEA07185C
:100650000290C800059008F1040109F1040007EBBD
:10066000470603EB4712184419447B0102EB0715B8
:100670000D9701933301A5EBC6040393F3000D9E80
:100680000493DDF844C0009B02EBC70704EB461659
:10069000D5ED006AD4ED004A96ED004A11ED016AED
:1006A000D2ED003A97ED005A1CED017A50ED017A37
:1006B00034EE840A37EE858A76EE265A76EE662A7E
:1006C00036EEC66A77EE236A77EEC57A37EE637A3E
:1006D00036EEA55A78EE003A76EEE56A35EE233A24
:1006E00077EEE45A35EE635A77EEC47A0CED013AB0
:1006F00077EEA47A82ED005A75EE845AB0EE471A6E
:10070000D0ED004AA5EEEB1AA5EEAB7AA7EEAB6AE8
:10071000D7ED015AD2ED013AD4ED018A91ED005A9C
:1007200096ED01AA9CED004A95ED019AB0EE462A9D
:1007300034EEE56A74EEA54A75EE09AA74EE235A02
:1007400076EE680A34EE634A76EEE49A78EE8A3AF8
:1007500035EE493A70EE8A0A39EE459A36EE4A6A23
:1007600035EEEA5A76EEE36A75EEAA5A79EEA39A66
:1007700074EEA3AAF0EE443A36EE286A76EEA46A46
:1007800075EE488AE0EEEB3A35EE405AF0EE444A18
:1007900035EE085AE0EEAB4AB0EE638AF0EE430A5B
:1007A000F0EE621AB0EE41AAB0EE494AE7EEAB1A9B
:1007B000E6EE2B0A35EEAABAA6EE6BAA75EEEA5A59
:1007C000A6EE2B4AA7EEEB8A8CED00BA38EE806AD3
:1007D000C2ED015A37EE200A41ED016A37EE607A28
:1007E00074EEE16A33EE0A3A31EE044A71EEA45A2D
:1007F00073EE823A72EE887ADE44F245C5ED009AD5
:100800009C4481ED006A1A4485ED015A194400EDBB
:10081000010A1D4486ED007A87ED003A84ED004A16
:10082000C0ED006AC6ED015A1844C7ED013A1E44F6
:10083000C4ED017A1F441C443FF62AAF1F460D9BAE
:10084000072B40F2B381019D109E029C083509F1EF
:10085000080973190398049908340C9306EB0903EB
:10086000059A08300B93331908310A93331808326C
:100870000993731808F10C080893B318079306EB53
:100880000803059306F10C0306934FF001094FF09E
:1008900000083B46DDE905C7DDE90765DDE90940FC
:1008A0000E9ACE4690440F9A08EB480102EBC8021C
:1008B000D2ED00EA02EBC80292ED00EA02EBC802B8
:1008C000D2ED00DA02EBC80292ED00DA02EBC802C8
:1008D000D2ED00CA02EBC80292ED00CA02EBC802D8
:1008E00092ED00BAD2ED01AAA2EB011292ED01AA9B
:1008F00002EBC802D2ED017A02EBC802CDED017A1B
:10090000D2ED017A02EBC802CDED027AD2ED017A86
:1009100002EBC802CDED007AD2ED017A02EBC802FB
:10092000CDED037AD2ED017ADDE90B12CDED047A3B
:1009300002E000BFF304353F95ED006A96ED007AC2
:100940005CED017A90ED003AD4ED003AD2ED002A48
:1009500057ED014A91ED005A76EE070A35EE030A8B
:1009600037EEA34A74EEA26A35EE435A36EE843A65
:1009700076EEC46A30EE204A77EEE38A74EEE24AFD
:1009800073EEE73A73EE042A75EE467A47ED012AD4
:1009900077EE877A35EE475AF0EE649AD0ED012A69
:1009A00035EE065A33EE443A91ED016AE7EEEB9AE2
:1009B000E7EEAB4ADDED007A96ED01FADCED001AC8
:1009C000D7ED005A94ED017A92ED019A36EE624A23
:1009D00023EE671AD5ED017A36EE226A31EE872AC8
:1009E00077EE8FFA75EE892A75EEC95A31EEC79AFD
:1009F00037EE617A74EE671A34EE4F4A71EE8F1A51
:100A000036EEEFFA76EEC66A34EE274A7FEEA66A35
:100A100072EEC27A3FEE06FA72EE822A36EE2F2A84
:100A2000F0EE65FAB0EE656AE1EEEBFAA1EEAB6AC4
:100A3000F0EE495AF0EE691AE4EE2B5AB0EE688AED
:100A4000A4EE2B7AE4EE6B1AB0EE6F4AA5EE2B8A79
:100A5000E5EE2B3AA5EE6B4A37EEE05A37EE297AEF
:100A600030EE055ADDED049A7FEEA3FA77EEC07AF8
:100A700034EEA50A74EEE55ADDED034A71EE891AEB
:100A800038EE844A64EEAF3A76EE488A38EE066A6B
:100A900026EEE98A9DED019A77EEA07A61EEE44AAE
:100AA00072EEC20AECEEA13AACEE058ADDED001A58
:100AB00029EE855A32EE822AADEE201A6FEE492ACF
:100AC00061EEA01AACEE265ADDED026A87ED002A2F
:100AD000EEEE272A82ED011A69EE277AEDEE031A6F
:100AE0002AEE282A26EE843A20EE4A9A6AEE860AF0
:100AF00025EEEA1A67EE666AECEEAF4AEEEE0F7A82
:100B0000ADEE873AEDEE846AAEEE802AAEEEA89A9C
:100B1000EBEE250AABEE061ADE44F245C2ED001AF2
:100B20001F444CED017ACCED002A1A4484ED005AA2
:100B300084ED018A9C4481ED002A81ED019A1C44D8
:100B4000C6ED000A194486ED011AC0ED003AC0ED69
:100B5000014A1E4485ED003AC5ED016A18441D4462
:100B60003FF6EAAE0C9A09F1010908320C920B9A91
:100B700008320B920A9A08320A92099A08320992AC
:100B8000089A08320892079A08320792069A0832A1
:100B90000692059A083205920D9A4A457FF47AAE7C
:100BA0000E9B9346DB009BB20E9340E513B0BDEC69
:100BB000108BBDE8F08F00BF03462DE9F0411A8885
:100BC000084601EB82065108D2082DED088B5F68BC
:100BD00000F0A5804FEA810C0CF1100C00F110031D
:100BE00000EB0C0403EB0212B44407F1100506F10C
:100BF000100E1CED043A5CED036A5EED024A1EED38
:100C0000015A5CED027A1CED017A1EED040A1EED1C
:100C1000031A53ED040A53ED031A13ED022A53EDA0
:100C2000012A54ED043A14ED034A54ED025A14ED2E
:100C3000016A72EE24AA32EE85AA73EE839A34EE2C
:100C4000269A75EEA78A36EE078A70EE80BA31EEE4
:100C500081BA103443ED04BA03ED03BA43ED02AA9E
:100C600003ED01AA44ED089A04ED079A44ED068AC3
:100C700004ED058A103576EEC46A33EE633A77EEFA
:100C8000E57A55ED085A37EE467A32EE642A15EDCC
:100C9000076A72EEC52A65EEE64A70EEC00A71EE8A
:100CA000C11A23EE255A61EE863AA6EE865A26EE42
:100CB000604AF0EE646AA1EEA54AE3EE066AE0EE51
:100CC000A53A0CF1100C0EED034A4EED043A0CED72
:100CD000075A4CED086A15ED066A55ED056A67EE90
:100CE000865A26EE475AE7EE265A22EEA64A66EEC6
:100CF000C24AB0EE457AA2EE064AE2EE864AA7EE76
:100D0000A67A103393420EF1100E0EED064A4EED08
:100D1000054A0CED067A4CED055A7FF46AAF8CB2A9
:100D20003A4621460223FFF773FCBDEC088B3A4696
:100D300021463046BDE8F041022369E42DE9F04F39
:100D40000E46028891ED007A520806EBC20494ED3B
:100D5000006A2DED068B04EB8205D5ED005A77EE87
:100D6000066A43688FB001EB820191ED005AD1ED24
:100D7000012A084609911946D6ED017AD4ED014AB7
:100D800035EEA63A08330196069301F11003049359
:100D9000089101F11803019937EE467A8C4637EE37
:100DA000A46A33EE053A77EEE47A95ED012A35EE42
:100DB000A74A8CED003A76EEC56A75EE277A34EED6
:100DC000455A95ED014A72EE873A76EE624A76EE22
:100DD000E56A77EEE57A32EE077AD0ED015A36EE23
:100DE000046A083105960191264601462F4673EEA6
:100DF000C23A74EEC24A37EE627A36EE256A4FEA9C
:100E0000820E52080B92023A0831083652088CEDD5
:100E1000016A0291C0ED003A80ED015A0A94C4EDD6
:100E2000006A079303962146C4ED014A07F10807BB
:100E300085ED007AC5ED017A0C9200F0328193467F
:100E40000A460C390D910899059EAEF10C0301F18B
:100E5000200901F13008DDF810A00D99A0F10C0473
:100E600002F1100E2B4410361030A5F10C0C05F1D8
:100E7000100212ED026A50ED026A1EED024A16EDF2
:100E8000027A5EED013A56ED017A77EE041A76EEBB
:100E9000864A52ED015A37EE447A74EEA14A37EE93
:100EA000A34A77EEE37A083610ED015A77EE652A09
:100EB00046ED044A37EEE63A77EEC67A0830083255
:100EC00072EE852A74EE450A71EEE61A37EE457A1F
:100ED00037EEA65A52ED036A50ED037A77EEA67A02
:100EE00077EE847A46ED037A37EE257ADCED029AC6
:100EF000D4ED027A33EE063A71EEC61A70EEE50AC8
:100F000091ED026AD3ED025A93ED018A77EEA93A88
:100F100036EE254AD1ED018A73EE84AA39EE881A9D
:100F20009CED010A76EE654AC4ED02AA33EEC66A6C
:100F300031EE681A94ED019A77EE886A76EE655A7A
:100F400031EE671A91ED016AD3ED017A39EE00AA0C
:100F500036EE276A36EE0A6A76EEE96A84ED016AB1
:100F600076EEE86A1AED026A5AED017A34EEC02A8A
:100F700074EEC94A32EE092A74EE804A34EE634AAE
:100F800026EE860A23EE279A7AEE683AA2EE270A20
:100F900073EEC83A67EEE28A26EE428AB0EE492A3C
:100FA000A2EE862AF0EE682AE3EE062AB0EE486A40
:100FB000A6EEA76A40ED032A00ED042A81ED026A3D
:100FC00081ED010A59ED037A27EEE13A19ED046A41
:100FD00065EEA76A60EEA72AF0EE435A67EEE37A61
:100FE000E3EEC66AE4EE067AE0EE865AE1EE862A81
:100FF0004EED022A4EED015ACCED016ACCED027A9B
:1010000058ED066A58ED057A66EEE45A27EEC74AAF
:1010100021EE266A65EE273AA4EEA76AE7EE263AA5
:10102000F0EE444AB0EE657AE5EE264AA1EE277A64
:10103000BBF1010BA1F10801A3F10803A4F108041D
:10104000ACF1080C42ED043A42ED034A0AF1080AF9
:1010500009F110090EF1080E08F1180883ED047A61
:1010600083ED036A7FF405AF0C9B019A07EBC3077E
:1010700002EBC3020192069A02EBC3020692029AA5
:1010800002EBC3020292049A02EB03120492039A47
:1010900002EBC3020392079A03EB430302EBC30381
:1010A0000793029E019C039A97ED004AD6ED006AD1
:1010B000D2ED005A94ED007A92ED016AD4ED017AF6
:1010C00077EE251A76EE843A37EE862A73EEA13A49
:1010D00077EEC67AD6ED012A97ED013A37EE657ABA
:1010E000C4ED003A71EEE65A37EEE65A77EEC47A6E
:1010F00075EEC45A77EEA67A35EE045AD6ED016A3B
:1011000097ED014A76EE846A76EE826A77EE434A7C
:10111000C4ED016A069C74EEA24AD4ED016AD4EDD6
:10112000003A25EE264A66EEE46AE5EE236AA4EE6E
:10113000A34AC6ED016A32EE626A86ED004A049E59
:1011400036EE436AD6ED016AD6ED004A26EE265AFF
:1011500066EEE56AE6EE246AA5EEA45A039C37EE35
:10116000627AC4ED016A84ED005A079C37EE037A77
:10117000D4ED016AD4ED005A27EEA66A66EEC76A7E
:10118000A7EE256AE7EEA56ABDF82C90DDF8208071
:101190000598424687ED006A4946C7ED016A042377
:1011A000FFF736FA4246494609980423FFF730FA1A
:1011B000424649460A980423FFF72AFA0423424686
:1011C000494628460FB0BDEC068BBDE8F04FFFF74F
:1011D0001FBA00BF2DE9F04F0788154607F1FF3809
:1011E00083B001EBC80281460C460192002B00F04F
:1011F000B380D1ED007AD1ED016AB6EE004A37EE48
:10120000A67A77EEE67A27EE047A67EE847AB8F16A
:10121000000F426985ED007AC5ED017A40F3CB807D
:1012200001981032103405F11001A0F10803A0EB71
:10123000C706D3ED036AD3ED027A14ED027A54EDBA
:10124000014A12ED026A52ED015A37EE675A77EE03
:10125000877A34EEE67AE6EE457A76EEA46AA5EE73
:10126000857AE5EEE67AA6EE667A67EE847A27EE70
:10127000047A083B9E4201F1080102F1080204F1E0
:10128000080441ED047A01ED037AD2D1BA46002276
:1012900005F10C0353ED027AF1EE677A0132524503
:1012A00003F1080343ED047AF4D1B7F5807F09D048
:1012B00072D8402F00F08D8000F21B81102F75D066
:1012C000202F03D129464846FFF738FDB9F80C60B6
:1012D000D9F808C0002E00F0108100210CF1020E98
:1012E0003CF811203EF8113092089B0855F8230075
:1012F00055F822904FEA820845F8220045F82390DD
:101300009B0008F1040004332A58EC580231B14222
:101310002C50EA50E4D307EE907AB7EE007AF8EE5C
:10132000677AC7EE276ABAF1000F12D0002308359A
:1013300015ED027A55ED017A27EE267A67EEE67A08
:101340000133534505F1080505ED047A45ED037AAF
:10135000EED103B0BDE8F08FB7F5807F08D00CD890
:10136000402F41D000F2C180102F10D0202F42D149
:1013700021464846FFF7E2FC3DE0B7F5006FF7D0A5
:101380002FD8B7F5007F2FD0B7F5806F33D1214626
:101390004846FFF711FC2EE0B7F5006F92D014D845
:1013A000B7F5007F15D0B7F5806F8FD12946484635
:1013B000FFF702FC8AE7002F40F0A8808689BA4632
:1013C000D0F808C0002E88D1C3E7B7F5805F7FF45E
:1013D0007DAF012339462846D9F80420FFF718F9D4
:1013E00074E7B7F5805F06D1394601232046D9F866
:1013F0000420FFF70DF9B9F80C70D9F80800FFB117
:10140000002200F1020E30F812A03EF812304FEA2E
:101410009A0A9B0854F8236054F82AB04FEA8A01CC
:1014200044F82A6044F823B09B000431043354F894
:1014300001A0E65802329742665044F803A0E2D871
:10144000D4ED017A77EEA77A94ED006AF0EE006AA7
:10145000B0EE677AB6EE004AA6EE267AD6EE267A87
:1014600027EE047A67EE847AD9F8143085ED007A95
:10147000C5ED017A019A1034A2F10806103305F186
:10148000100214ED027AD6ED036AD6ED027A54ED1D
:10149000014A13ED026A53ED015A37EEC75A77EE4F
:1014A000877A34EEE67AE6EE057A76EEA46AA5EE61
:1014B000857AE5EEA67AA6EE667A67EE847A27EE5E
:1014C000047A08F1FF38B8F1000F02F1080203F1C5
:1014D000080304F10804A6F1080642ED047A02EDBF
:1014E000037ACEDC03B0BDE8F08F802F3FF44FAF1E
:1014F00081E7802F3FF45AAFE8E607EE907AB7EE27
:10150000007AF8EE677AC7EE276A0FE74FF0010A14
:10151000BDE600BF10B44FF480740C4B53F820208C
:1015200003EB8003C00082F0400200F1804003F52D
:10153000805C02F0C00200F5203003F54053CCF887
:10154000002041601C605DF8044B7047048003403C
:1015500030B44FF0000343EC440043EC4000052559
:101560004FF480740B4BC20053F8201003EB800043
:1015700081F0400102F1804303F5203301F0C00205
:1015800000F5805100F540500A605D60046030BC99
:10159000704700BF048003404FF0E022936843F09F
:1015A00000539360704700BF4FF0E0234FF080324C
:1015B000C3F80024C3F80424C3F80824C3F80C2497
:1015C000C3F81024C3F81424C3F81824C3F81C2447
:1015D000C3F82024C3F82424C3F82824C3F82C24F7
:1015E000C3F8302462B67047F0B4144A144EB242C5
:1015F00021D24FF0FF0C1348134D08E01460A2F8FD
:1016000004C00370BFF35F8F0832B24213D2017877
:1016100017684B1CDBB2182B28BF10236C18002F47
:10162000ECD12944116082F804C00370BFF35F8FCE
:101630000832B242EBD3F0BC704700BFE81600207E
:10164000F816002010110020841700202DE9F04F1B
:1016500085B0EFF30583DBB2103B9A0818BF012277
:101660004FF0010103F00300A94B00EB820203EBF2
:101670008203D3F8AC7014BFA64DA74DB7F908404C
:1016800001FA00F605F54153002C5E600290EE630E
:1016900080F26081BB88180440F19980BB79002BEF
:1016A00040F0E580B7F90840002CC0F22C81D7F853
:1016B000148004EB440308EBC303D3E9020EBEF12C
:1016C000FF3F08BFB0F1FF3F4FEA440C0CD0029B34
:1016D00005EB8301AB6A0A69D21AC31A934202D39B
:1016E0002B6A334200D108616B6A1A46A96A6B6A99
:1016F0009342FAD1814273EB0E03C0F20481EE6390
:10170000A4446B6A08EBCC094FEACC02D9E902BACF
:101710001946A86A6B6A8B42FAD1584573EB0A03E3
:10172000B8DBBAF1000FC0F2CF80D9F810307B4897
:10173000D9F81410834200F00181B9F80200019237
:1017400080B240EA04409847019A50EA010300F051
:10175000BB80002980F2E480BBEB000B6AEB010147
:1017600038F90230C9E902B1002B93DBD7F814C075
:1017700003EB43000CEBC000D0E9029ECB454FEADF
:10178000430071EB0E0A039084DB384620F8083FD3
:10179000019003980CE03CF93030CDF804A0002B08
:1017A0000DDB03EB430E0CEBCE0E5800DEE9029E80
:1017B000CB45184471EB0E0E0CEBC00AEBDA28F89F
:1017C0000230019B1C80BB8818043FF567AF3B6962
:1017D000EFF3108272B6D3E8CF0F01210028FAD1BF
:1017E000C3E8401F0028F6D1BFF35F8F4FF6FF74A8
:1017F000B8880023396900B2BC80C1E88F3F82F30A
:1018000010889842FFF64AAFB246A84606467C6961
:1018100007F10809B7F9083006EB460E04EBCE02D3
:10182000002BCC46D2E9025013DBBB46019604E004
:1018300034F937309446002B09DB03EB430704EB04
:10184000C702D2E90261B54270EB0101F0DA5F46EE
:10185000019EACF8006034F93E6024F83E30002E62
:10186000D8DABB7956464546002B3FF41BAF002320
:10187000BB71B7F9083007F10809591C43D01C4661
:101880004FF0FF3A4FF0FF3BD7F814C003E0894612
:101890005A1C3FF409AF03EB43020CEBC201B1F851
:1018A00002E018461EF4004F98463CF93230EED064
:1018B000A042C1E902AB05D0A9F8003039892CF863
:1018C000321038814446E3E738F802103B69398129
:1018D000EFF3108172B6D3E8CFCF0120BCF1000F37
:1018E000F9D1C3E84C0FBCF1000FF4D1BFF35F8F07
:1018F0007B8828F8023000233A697C80C2E88F3F59
:1019000081F31088C6E640BF05B0BDE8F08F00BF88
:10191000F816002000800B4000000B404D16001010
:1019200096466B6A9C46AA6A6B6A6345FAD19346EF
:101930001BEB000B724643EB010111E708460B69F4
:10194000039201919847039A0028BDD00199D1E9EB
:101950000001FAE6D7F8148004FA01FCD0E600BFD3
:101960000146F0B50069EFF3108772B6D0E8CF5F9B
:101970000124002DFAD1C0E8454F002DF6D1BFF368
:101980005F8FB1F902E04C690EEB4E0CBEF1000F17
:101990004FEACC0504EBCC0C3DDB605B00264880B5
:1019A0000869C0E88F6F87F31088BCF80200CCE9A3
:1019B00002230130C0F30E00012838BF0120059B2F
:1019C000ACF80200CCF81030069B40EA0E40CCF890
:1019D00014300B69EFF3108272B6D3E8CFCF012732
:1019E000BCF1000FF9D1C3E84C7FBCF1000FF4D17A
:1019F000BFF35F8F8B886353A1F804E00B69C3E8E2
:101A00008F6F82F310880122CB68097803F50153A8
:101A10008A405A60F0BD00230A69C2E88F3F87F30D
:101A200010884FF0FF30F0BD0E4BD3F8CC20EFF311
:101A3000108172B6D2E8CFCF0120BCF1000FF9D1EE
:101A4000C2E84C0FBCF1000FF4D1BFF35F8F00224E
:101A5000D3F8CC30C3E88F2F81F3108840BF00202B
:101A600000217047F81600202DE9F041871F41F151
:101A7000FF38B84271EB080338BF0027064638BF6D
:101A8000B8460D462F4982B04C6AA446886A4C6A13
:101A90006445FAD1381A68EB0404012874F1000493
:101AA00013DA284A536A9D4202D9536A9D42FCD8F0
:101AB0009D4207D1234B02E05A6A954202D19A6AAD
:101AC0009642F9D802B0BDE8F0814B6A1D4A19462A
:101AD000906A536A8B42FAD10022381A68EB0303EA
:101AE000934209DB184B019200933A46434617484C
:101AF000FFF736FF0028D4DB00241248144A436A5B
:101B0000984504D8816AB942CBD29845C9D1D2F858
:101B1000CC30EFF3108172B6D3E8CFEF5FF0010C59
:101B2000BEF1000FF8D1C3E84ECFBEF1000FF3D1E4
:101B3000BFF35F8FD2F8CC30C3E88F4F81F31088AA
:101B400020BFDCE700000B40291A00101411002010
:101B5000F816002010B40B4A536A9C46946A536AE4
:101B60006345FAD120184FF0FF3243EB01016FF0CB
:101B70000043824273EB01043CBF104619465DF8F6
:101B8000044B71E700000B400021044B044ABFF3F3
:101B90005F8F43F8041B9342F9D170470C080E4045
:101BA0002C080E40704700BF002310B5DB8A0022CE
:101BB00042E800F2520254BF1021042145F25320A2
:101BC0009847BDE81040034604201847002310B58D
:101BD000DB8A002242E800F2520254BF10210421A5
:101BE00045F253209847BDE81040034601201847AE
:101BF00010B40748074C084B084A094904601A60AA
:101C00008B6832EA0303FBD15DF8044B704700BFD9
:101C1000002002407F3BEFEF00300240F6FFF3036D
:101C200000000240044BDB6CB3F5004F03D14FF4CE
:101C30008022024BDA6470470000115000201150DE
:101C40004FF0E022044BD2F8881D0B43C2F8883DC8
:101C500010EE3004704700BF030330006FF06041A6
:101C6000044B054A19609368DB4333F06043FAD1B3
:101C7000704700BF00300240000002400021044BCA
:101C800003F12002C3E88F1F01339342FAD170475A
:101C900084170020F0B44FF48D7000264FF42A64AE
:101CA000984A994D994B9A49C5F884601460D06060
:101CB00019605368002BFCDA0121964B924AD963D4
:101CC000536C012BFCD10321924B8F4A1963936B08
:101CD000012BFCD1904B1A68002AC0F25F814FF4AF
:101CE00080438E488E498F4A03600B6093685E0480
:101CF000FCD501247D202121874A8B4B1460906004
:101D000059601368002BFCDA4FF4A4200821864B9D
:101D1000D0605960854B1A68002AC0F253814FF495
:101D200000437E487E497F4A03600B6093681D0430
:101D3000FCD50124642021217C4A7D4B14609060F5
:101D400059601368002BFCDA4FF4AA200821784B65
:101D5000D06059606C4B4FF400605A6BB2F5803F15
:101D60003CBF4FF480325A63724B6A4AD3F8E0109A
:101D7000106341B1D3F8E420B2FBF1F2013202EB7F
:101D80004202033AFDD2604A6B48116B01F0E00158
:101D90000163116B81F0020101F003010163916B9A
:101DA0004C07FCD54FF480314FF400646348644D18
:101DB000C3F8E05004635163106C88424FF0030095
:101DC00038BF1164534A5049D0634A6CD007FCD5E0
:101DD000CA6B594802F0E002C263CA6B4A4982F0FA
:101DE000010202F00302C2634A6C9207FCD54FF471
:101DF00080324FF400645148524DC3F8E450C4633C
:101E00000A64486E90424FF4006038BF4A66D3F8C7
:101E1000F010404A106641B1D3F8E420B2FBF1F271
:101E2000013202EB4202033AFDD24FF480304FF40C
:101E30000064354A404D116E01F0E00129663F49CA
:101E4000414DC3F8F0500C665066116F814238BFA7
:101E500010674FF400602F4AD3F8F410D06641B1F8
:101E6000D3F8E420B2FBF1F2013202EB4202033A72
:101E7000FDD24FF480304FF40064234A2E4DD16ED2
:101E800001F0E001E9662D492F4DC3F8F450CC660E
:101E90001067D16C814238BFD0644FF400601D4A96
:101EA000D3F8E810906441B1D3F8E420B2FBF1F22A
:101EB000013202EB4202033AFDD24FF480304FF47C
:101EC0000064114A1C4D916C01F0E001A9641B49AA
:101ED0001C4DC3F8E8508C64D064916D814238BFCA
:101EE00090654FF400600B4AD3F8EC10506569B36D
:101EF000D3F8E420B2FBF1F2013202EB4202033AE2
:101F0000FDD223E0008004400000014000A0044016
:101F100000B0FA00003001400000054000200240FF
:101F200000300240000002400030054000800540C3
:101F300000B00540F81600200010014000200140CC
:101F4000001BB70080D1F008006CDC024FF4006782
:101F500001204FF48036254DD3F8E0106C6D244AF3
:101F6000DFF89CC0A2FB012104F0E004CCF854404F
:101F7000204C214A6765214C890CAE655160C3F83D
:101F8000EC401060F0BC1161D060D1619061916251
:101F90005062516310631164D06370471A6802F095
:101FA0003F02012A7FF49BAE9A68C2F30B027D2A9E
:101FB0007FF495AEDB6803F4EE23B3F5A42F7FF432
:101FC0008EAEA7E61A6802F03F02012A7FF4A7AEA0
:101FD0009A68C2F30B02642A7FF4A1AEDB6803F4B3
:101FE000EE23B3F5AA2F7FF49AAEB3E600000140CA
:101FF00083DE1B43002001400080104080D1F008A8
:10200000001001402DE9F04101292DED028B08EE71
:10201000100A50D001EBD1756D10012D0C463CD04B
:102020000E460029B8BFCE1CB610012E4ED00F466A
:102030000029B8BFCF1DFF10012F44D088460029CA
:10204000B8BF01F10F084FEA2818B8F1010F40D0CE
:10205000A1F120031F2B3FD90021FFF7D3FF07EE8B
:10206000900A67EEA77A18F0010F67EEA77A01D001
:1020700067EE887AF80767EEA77A01D567EE887A67
:10208000F10767EEA77A01D567EE887AEA0767EE6F
:10209000A77A04D567EE887A01E0F0EE487AE30784
:1020A00067EEA77A01D567EE887ABDEC028B17EE52
:1020B000900ABDE8F081F0EE487ABDEC028B17EE95
:1020C000900ABDE8F081F0EE487AD9E7F0EE487A60
:1020D000DCE7F0EE487ACDE7F0EE487AC3E700BFE0
:1020E000704700BF10B1D1E900311847704700BFF9
:1020F0002DE9F04F83B09946DDE90DAB0F9B884683
:1021000011469A07074616D1DA453AD20C460D46D3
:10211000ABEB0A060E4422464B46414620200134D2
:10212000B847B442F7D12946BAF1000F08D120468A
:1021300003B0BDE8F08F0C46BAF1000F10D00E4688
:1021400055460C9B2E449A440191721B4B46013D0F
:1021500041461AF8010D3446B847002DF5D10199D2
:102160000F9B9B07E3D5651AAB45E0D922464B464A
:10217000414620200135B847AB4504F10104F5D8AC
:10218000D5E7BAF1000FDAD10C46D0E72DE9F04FD0
:102190000F9FDDF824E017F0020F0A9C9DF82C90A9
:1021A0000E9DDDE90C8629D1002D6DD1B44225D2DA
:1021B000202C07F0010B00F0098104F1FF3C4FF0E7
:1021C000300AF44401E0202C78D00134A6420CF807
:1021D00001AFF8D8BBF1000F10D0AC420ED2202CCA
:1021E00072D004F1FF3C4FF0300AF44401E0202C9F
:1021F00028D00134AC420CF801AFF8D117F0100F21
:1022000039D017F4806F27D114BBB8F1100F00F04C
:10221000C680B8F1020F00F0CB8030248EF8004069
:102220000124B9F1000F65D17E0740F1A6802B266D
:102230000EF804600134CDE90B57CDE909E4BDE89F
:10224000F04F55E7FC0640F187807C0534D420240C
:10225000A64268D0AC4266D0B8F1100F00F084807E
:10226000B8F1020F58D0202CE5D0264601344FF0AB
:10227000300C0EF806C0202CD3D1CDE90B57CDE998
:1022800009E4BDE8F04F33E717F0010B3DD0B9F199
:10229000000F46D117F00C0F43D1B4429DD2202C31
:1022A0008BD1202D10D8FC0656D57C0554D4202E79
:1022B00000F0BC80202D10D02024CDE7BBF1000F12
:1022C00000F0A880202DBDD9FC0645D57C0543D45F
:1022D000202E00F0AB80202D3ED12C461F26B8F1D9
:1022E000100F78D0B8F1020FC1D14FF0620C0EF888
:1022F00006C0B8E72D260EF804600134CDE90B576F
:10230000CDE909E4BDE8F04FF2E6B442BFF476AFA0
:10231000202C7FF452AFD7E7202C8CD026460134F6
:10232000E3E7013DB9E7661ED9D1B8F1100F5ED0E1
:10233000B8F1020F7FF471AF62248EF800403024B0
:102340008EF801400224B9F1000F3FF46DAFD1E7E0
:10235000B8F1100F7FF46FAF2024CDE90B57CDE912
:1023600009E4BDE8F04FC3E6BE060ED4202CF3D03E
:1023700078260EF80460013475E73E077FF55BAF01
:1023800020260EF80460013455E7202CE4D04FF0ED
:10239000580C0EEB040686F800C0013463E7BC0657
:1023A00012D558248EF8004030248EF80140C9E739
:1023B00062268EF80060302644468EF80160B9F13E
:1023C000000F3FF431AF95E77824B6E7BBF1000F7B
:1023D0007FF469AF78E717F0200FA4F1020604F14B
:1023E000FF3412D04FF0580C0EF806C03DE7BE0681
:1023F000EAD558248EF8004030248EF8014002249B
:10240000B9F1000F3FF410AF74E74FF0780C0EF8FD
:1024100006C02AE717F0100F3FF40DAF17F4806FD6
:1024200096D1202E7FF416AF1F2658E734461F267C
:1024300055E700BF2DE9F04F9DB02A9CCDE90A3247
:10244000DDE9268314F480650E95289D08BF0625D6
:1024500023F0004904F4006758EA090382468B46DA
:102460002895099740F09080002F40F0A5819FEDBE
:10247000B87B3D468DED0C7B0427299B9F422CBFEA
:102480000023DB1B14F00206099304D0002F099BE4
:1024900018BF002309933DB1DDE90C2340464946AE
:1024A00006F03EFE80468946DDE926010022002333
:1024B00006F0ECFE10B109F100439946099BCDE905
:1024C00000890393289BDDF82890029324F400638D
:1024D000049359464B4650460B9A00F091F98046BA
:1024E000002F4DD014F0200F024600F101084B469A
:1024F00059460CBF65204520D04785EAE573A3EB1C
:10250000E57314AC002220469946DFF8A8C2791E74
:10251000ED0F01E0202A10D0CE46ACFB0937FF08B2
:1025200007EB8703A9EB43033033BEF1090FB9462C
:1025300002F1010200F8013BECD8052300200693CC
:102540000A23CDE901250A9DCDE9033042460591D4
:102550002B46594650460094FFF718FE80467EB140
:102560000B9A841A299AA2420AD9164642462B4649
:10257000594620200134D047A64208F10108F5D879
:1025800040461DB0BDE8F08FC9F30A50A0F2FF30FD
:1025900006F022FE85A3D3E9002306F09BFDC9F3D4
:1025A00013030F4643F07F51064600227A4B404604
:1025B00041F4401106F07AFD67A3D3E9002306F049
:1025C00089FD67A3D3E9002306F05CFD02460B46B4
:1025D0003046394606F056FD06F022FE054606F066
:1025E000FBFD61A3D3E9002306460F4606F072FD0A
:1025F00000226A4B06F046FD06F012FE03463946FD
:1026000030461E465AA3D3E9002306F063FDCDE908
:102610000C0130460F9606F0DFFD57A3D3E90023E7
:1026200006F058FD06460F46DDE90C0132463B46F2
:10263000CDE9106706F03AFD06460F4602460B4606
:10264000CDE9126706F046FDDDE9122306460F4686
:102650001046194606F016FD49A3D3E90023CDE93B
:1026600012013046394606F035FD00224C4B06F08B
:1026700009FD02460B463046394606F051FD002260
:10268000484B06F0FFFC02460B463046394606F042
:1026900047FDDDE90C2306460F4600204FF0804140
:1026A00006F004FDDDE9102306F0ECFC02460B46C3
:1026B0003046394606F0E6FC02460B46DDE91201DB
:1026C00006F02EFD0022384B06F0DCFC0F9B0022AA
:1026D00003F2FF36330506F0FDFC06460F46424680
:1026E0004B46CDE90C6706F0F9FD10BB3346394681
:1026F00005F16302C62A099A8CBF05270427002A20
:102700003FF4BBAE0B435CD01FA3D3E9002340468C
:10271000494606F0CFFD002860D1289B002B3FF4EE
:10272000ACAE0E9B002B3FF4A8AE289B013B289338
:10273000A3E617A3D3E900233046394606F0CAFCC6
:102740000A4601460346CDE90C12013D1146CFE78A
:10275000000000000000000061436F63A787D23FC4
:10276000B3C8608B288AC63F71A379094F930A408A
:102770001655B5BBB16B0240EF39FAFE422EE63F6B
:10278000922449922449B23F2D431CEBE2361A3F72
:102790009A9999999999B93F0000F83F0000E03F54
:1027A00000002440000018400000F03FFB799F50DB
:1027B0001344D33FCDCCCCCC9FED0D7B00258DEDCC
:1027C0000C7B289B0027AB42D2BF00235D1B05F189
:1027D000FF3328933D4644F480644EE6404606A30A
:1027E000D3E90023494606F051FD0028E9D194E7DA
:1027F00000000000000000000000000080842E4166
:102800002DE9F04F97B0CDE90501DDE920ABDDE919
:10281000224807920C935046B3A3D3E900235946AC
:10282000DDF8909006F05AFD002840F0CD80B5A369
:10283000D3E900235046594606F028FD002840F011
:10284000C380504659460022002306F01FFD002891
:1028500040F0A98019F480650D9000F0AD80092C3E
:1028600040F231810EAB1A46049330210023A4F1CB
:1028700009050133202B02F8011BA4EB030600F02D
:102880001281AB42F5D19FED987B8DED087B5946C7
:10289000504606F0C5FC044606F09EFC02460B4678
:1028A0005046594606F002FCDDE9082306F012FC0A
:1028B00002460B46CDE90A2306F0C4FC074606F0A3
:1028C0009DFC02460B46DDE90A0106F0EFFB0246DD
:1028D0000B46CDE90A230022874B06F0FFFC0028B7
:1028E00000F09B800137384606F088FCDDE90823BC
:1028F00006F0E0FC002840F0D380002E71D1204685
:1029000006F06AFC02460B465046594606F0CEFBDE
:102910000022794B06F0A8FC002840F0BC80049B04
:10292000691E764819440FE080FB0462C3EBA203E2
:1029300003EB8302A4EB420404F1300201351C4690
:1029400001F8012F002B77D0202D4FEAE473EBD153
:1029500009F00303012B18D1B8F1000F15D00D9B1E
:10296000002B00F0898008F1FF38A84568D9202D98
:102970000AD0302204996B1E0B440135454503F8FB
:10298000012F5DD0202DF8D12025DDE90440DDE9BF
:102990000612CDE902890C9B01950094FFF7A8FB74
:1029A00017B0BDE8F08F012319F480650D930BF18A
:1029B00000439B467FF453AF9FED4D7B0EAB062645
:1029C0008DED087B049362E70C9B0598CDE920AB65
:1029D000DDE90612CDE92389229417B0BDE8F04F56
:1029E00028E5049B681EDFF824C118440DE0ACFB09
:1029F0000721C90801EB8102A7EB42023032092FFF
:102A000000F8012F28D90F461D46202D05F101039E
:102A100006F1FF36EBD1202581E70022DDE90A012E
:102A2000354B06F033FC00287FF467AF17B1FA0787
:102A30007FF563AF013760E709F00303012B4ED048
:102A4000202DA2D00D9B0BB32D2205F158036B4412
:102A500003F8202C013598E7202BDCD02EB3049A04
:102A60001E441544302201E0B3421ED00133202B16
:102A700005F8012FF8D1CEE719F00C0F7FF473AFF2
:102A8000A8453FF674AF202D3FF47FAF19F0040F37
:102A900013D02B22D9E7E3077FF541AF01343EE79E
:102AA0000027013429E71D46EDE62E2103F15802E7
:102AB0006A4402F8201C5D1C31E719F0080F3FF44E
:102AC00064AF2022C1E70E4B264603EBC40393ED0F
:102AD000007B0EAB8DED087B00250493D7E6B8F1A3
:102AE000000FADD03BE700BF0000000065CDCD4139
:102AF0000000000080842E410000E03F67666666AB
:102B000058ED00100000000065CDCDC1CDCCCCCC7F
:102B10002DE9F04F9A469BB0249C964D0B94964C11
:102B20000B1E18BF8346C4F8F8509AF80000934C67
:102B30000A9308BFA3460992002800F0BE824FF016
:102B400000090AE04A46099B0A9909F10109D84798
:102B50009AF80000002800F0CE8025280AF1010A2A
:102B6000F0D10023524612F8010BA0F120011029E8
:102B70000AD8DFE801F04009093C090909090909F7
:102B80000938093409093000A0F13001092940F25F
:102B90008C802A2800F0F48000210C912E2800F06F
:102BA00099800027A0F1680112292DD8DFE811F0E3
:102BB00056012C0050012C0044012C002C002C004C
:102BC0002C002C002C002C0027002C002C002C00AA
:102BD0002C002C002700924643F00103C2E79246E6
:102BE00043F00203BEE7924643F00403BAE792467D
:102BF00043F01003B6E7924643F00803B2E79AF8B1
:102C0000010043F4807301326728924600F282800B
:102C1000242840F2C580A0F12502422A00F2C0809B
:102C2000DFE812F05E01BE00BE00BE00BE00BE00C6
:102C3000BE00BE00BE00BE00BE00BE00BE00BE00A4
:102C4000BE00BE00BE00BE00BE00BE00BE00BE0094
:102C5000BE00BE00BE00BE00BE00BE00BE00BE0084
:102C6000BE00BE00250144012501BE00BE00BE001D
:102C7000BE00BE00BE00BE00BE00BE00BE00BE0064
:102C8000BE00BE00BE00BE00BE00D201BE00BE003F
:102C9000BE00BE00BE00BE00BE00BE00BE00D2012F
:102CA0006601D201250144012501002100E0013225
:102CB00001EB810100EB410110789246A0F1300454
:102CC000092CA1F13001F2D92E280C9102F1010258
:102CD0007FF467AF9AF801001146A0F13006092E83
:102CE00043F4806340F230812A2800F03D8192460F
:102CF0000027013256E74C46099B994501D303F161
:102D0000FF394A460020099B0A99D84720461BB044
:102D1000BDE8F08FA0F16902D2B20F2A40D8012697
:102D200049F2410196400E4040F000810A2A3ED00F
:102D3000072A35D10B9C54F8042B002A00F0278178
:102D400043F021010DF1480E704603E0202E00F003
:102D500028811A4602F00F052B46092D94BF303307
:102D600037330F2A00F8013B06F101064FEA121330
:102D7000ECD816E1112B0010F8160020E12000100D
:102D80000B9C9AF8010054F8045B9246002DBDBFDD
:102D9000694243F002030C910C950B940132FDE65D
:102DA0004A46099B0A9909F10109D847D0E60B99CF
:102DB00051F8048B98F800201046002F40F0E18075
:102DC0006FF0010C62B10CF1010C4646C44401E005
:102DD000664503D016F8014F002CF9D1A6EB080682
:102DE00013F4806C02D0BE4228BF3E4613F00204AA
:102DF00000F08781002A00F02B81BCF1000F00F069
:102E000041810B940D964A46DDE909540E464F4424
:102E100008E02B462146D84718F8010F09F10109AF
:102E200010B14A464F45F4D131460B9C0D9E002C03
:102E300040F00E810B918BE69AF801006C287FF42C
:102E4000E0AE9AF8020043F440730AF10302DBE6B5
:102E50009AF8010043F400730132D5E69AF80100B4
:102E6000682800F0208143F080030132CCE6672817
:102E700000F0E780472800F00081452800F0FF803F
:102E80000B9C04930C9B0734CDE9027324F00703D9
:102E90001C46DDE90931F4E802674A465846CDE9A7
:102EA00000670B94FFF7C6FA814651E646280B9C53
:102EB00008BF43F0200304930C9B0734CDE9027351
:102EC00024F007031C46DDE90931F4E802674A46AD
:102ED0005846CDE900670B94FFF792FC814637E630
:102EE0004A462520099B0A9909F10109D8472FE68E
:102EF0000B9A9C0702F1040709F1010640F1E680F4
:102F00001078099B4A460A99D8470C9B012B40F23E
:102F10002C81DDE90954994432462B462146202074
:102F20000136D8474E45F7D10B9711E66F2800F0D0
:102F30008B8040F26581782800F008814FF00A0804
:102F400023F01003C44647E0002707EB870700EB98
:102F50004700A0F1300711F8010FA0F13002092A53
:102F6000F3D98A464A1C1DE60B9C9AF8020054F8D5
:102F7000047B0AF1020A0AF101020B9427EAE777BF
:102F800010E6002A3FF42CAF07F1FF3C1BE723F0CB
:102F9000100113F4806241F021013FF4D3AE0DF132
:102FA000480E08231020059300234A46CDE902303D
:102FB00006915846DDE90931CDE900E60497FFF7AF
:102FC000E5F80B948146C3E5582879D0622840F093
:102FD00051824FF00208C44613F480606AD123F096
:102FE0000C0313F4007240F0C2800B9904310D9170
:102FF00013F4807140F02E825E060B9A40F1AA8095
:103000001278002A40F0DA8023F01003002800F044
:10301000D58011460DF1480E06930C9BCDF80CC0DF
:10302000CDE90473019100234A4602935846DDE935
:103030000931CDF800E0FFF7A9F80D9B81460B930D
:1030400086E543F400631BE74FF00808C446C3E776
:103050000C9B4C46B3427FF6EDAE0F464B44A3EBC0
:103060000609DDE909652246334629462020013458
:10307000D8474C45F7D13946DCE643F4006343F0CA
:103080002003FDE60F460B94DDE909544A462B4622
:103090002146D84718F8010F09F101090028F5D198
:1030A00039460B9CC3E69AF8020043F0C0030AF1CC
:1030B0000302A9E523F00D0393E7044681461BE6CE
:1030C0004FF0100843F02003C44685E70C9B012B0A
:1030D00045D9DDE909544E4609F1FF389844324696
:1030E0002B46214620200136D8474645F7D10C9B78
:1030F000324699440B9B1878DDE90931D8470B9784
:1031000026E50C9BB34240F2EE81CDE90D48DDE9A6
:10311000095488464B449E1BCDF82CC04A462B468A
:103120002146202009F10109D847B145F6D1414691
:10313000DDF838800C9BDDF82CC00D9C98F8002041
:103140005E1C1046002A7FF458AE73E64FF010085C
:10315000C44641E71D064CBF1288126851E713466A
:103160004A461878DDE90931D847B146DCE60B9CC0
:10317000073424F007042246656852F8084B0B9286
:1031800054EA050240F02C8123F01003002800F0DF
:10319000278100260DF1480E06930C9B4A46CDE987
:1031A00004730023CDE900E6CDF80CC00293584625
:1031B000DDE90931FEF7EAFF8146C9E413F0200F8B
:1031C00014BF412061200DF1480E7646A0F10A0897
:1031D00003E020293FF420AF2246B2FBFCF40CFBB5
:1031E0001425E8B2092D00F130058ABF4044E8B249
:1031F000C0B2624506F8010B01F10101E9D20BE70B
:1032000023F0100269280D9240F06F8113F4806260
:1032100004D04FF4806223F011030D930D9B13F43F
:10322000007640D10B9B03F104080D9B13F48070D2
:1032300040F09880590640F1C6800B9B19780C46E7
:10324000CB0F002900F0B98022460DF1480E7446DC
:103250001646DFF8A0C201E020280FD03546ACFBAF
:103260000621C90801EB8102A6EB42023032092D8A
:103270000E4600F1010004F8012BEDD80D9ACDE9BE
:10328000010306920C9ACDE904720A234A4603937D
:103290005846DDE90931CDF800E0FEF777FFCDF8BB
:1032A0002C80814654E40B9C073424F0070421460B
:1032B0000846636850F8081BDC0F0B9051EA0300C6
:1032C00000F0C3800A46191E48DB13460DF1480E74
:1032D000F4460026CDE90E49DFF8188201E0202EE1
:1032E0002DD05A1842F10002A8FB025929F003051B
:1032F00005EB9905521B1C469B1A61F10005084617
:103300004FF0CC3101FB03F108FB0511A3FB08537F
:103310001944052305F00109A9FB03399B180A2C60
:1033200003F130034FEA550570F100000CF8013B42
:1033300006F1010645EAC1734FEA5101CFD2DDE93A
:103340000E490D9B4A4606930C9BCDE90164CDE9DD
:1033500004730A23CDF800E0039328E7524261EB9F
:103360004101B2E70B9B1968CB0F002900F0AB803D
:1033700081EAE172A2EBE1720DF1480E7046DFF8CE
:1033800074C101E0202E10D01546ACFB0241C908E3
:1033900001EB8104A2EB440404F13002092D00F892
:1033A000012B06F101060A46ECD80D9ACDE901631E
:1033B00006920C9ACDE9047267E7002A3FF445AF04
:1033C0000DF1480E5AE713F0800F0B9B00F081803F
:1033D000B3F9001081EAE174A4EBE174A4B22FE721
:1033E00013F0200F14BF412261220DF1480E0A3A5A
:1033F000CDE90D97CDF844B000267746F3469146C7
:10340000CDE90F3C03E0202E17D004460D46294697
:1034100042460023204607F0DBFCD2B2092A02F123
:10342000300388BF02EB09034445DBB275F10005A8
:1034300007F8013B06F10106E5D2DE46DDE90D970E
:10344000DDE90F3CDDF844B0A6E6002A47D113467B
:1034500011463BE70B990968A1B923F0100388B125
:103460000DF1480E06930C9BCDF80CC0CDE904730A
:103470000192D8E513F480627FF4CBAE23F0100301
:103480000D93CBE613F0200F14BF412061200DF106
:10349000480E7646A0F10A0802E0202AE2D0214632
:1034A000B1FBFCF40CFB1415E8B2092D00F130055A
:1034B0008ABF4044E8B2C0B2614506F8010B02F190
:1034C0000102EAD2CEE7002A3FF456AF0DF1480ED2
:1034D0006BE7196881EAE174A4EBE174B0E60026B9
:1034E0000DF1480E2DE701362BE64FF00A08134682
:1034F000C44671E5CDCCCCCC0368084611461847CC
:10350000437D2DE9F04781460F461646002B43D0F8
:10351000002A3BDD00217D1E15F8012F037D0A2ABC
:103520000846DFF8848001F101040ED0A6421CD0C9
:103530002B782146A3F10D03B3FA83F315F8012F7D
:103540005B090A2A01F10104F0D1002BEED1884277
:10355000A1EB000138441BDB02214046D9F80030C2
:103560009847A64208D02046E2E7864204DD311A99
:10357000D9F8003038449847374417F8013CA3F194
:103580000D03B3FA83F35B0989F81430BDE8F087C3
:10359000D9F800309847DFE73846D9F800301146AF
:1035A000BDE8F047184700BFA8ED0010F8B50B685C
:1035B0000D46802B064604D05A1C2B442A601E71EF
:1035C000F8BD0C4BD3F8FC4054B10F1D23686BB110
:1035D000204639462A68FFF793FF2469002CF5D16D
:1035E000002301222B442A601E71F8BD2469002C9F
:1035F000ECD1F5E7F8160020B1F1000C1FDD104BFF
:1036000010B5D3F800210F4C411E101BB0FA80F00A
:103610000D24400903EB4003B3F904E18C4411F895
:10362000010F864506D093699B06FCD46145106066
:10363000F5D110BD93699B06FCD41460F3E7704785
:10364000F816002000800740224AB1F1000C10B4A7
:10365000D2F808412EDD03460020D2F80021591E81
:103660009369DB0617D401309369DB06FCD4136839
:10367000844501F8013FF3D14CB1502113469163C9
:1036800053F8342F02F0380203F580531A60604675
:103690005DF8044B70474CB150211346916353F8C9
:1036A000342F02F0380203F580531A6078B15DF8C8
:1036B000044B70475CB1D2F800215021134691634E
:1036C00053F8342F02F0380203F580531A606FF07C
:1036D0000200ECE7F8160020074BD3F808214AB1A6
:1036E00010B40024D3F80011D3F80C018C635DF8FA
:1036F000044B1047704700BFF8160020034BD3F867
:10370000002193691B07FCD4704700BFF816002006
:10371000002390F8312070B480F83030002A4DD169
:1037200041F4806C90F82B3090F833501E1E18BF77
:10373000012683F0010380F82B30234B90F82E20D4
:10374000D3F81011D3F81011D3F8104169420134A5
:10375000C3F8104101F4004141EA4631D3F8106149
:1037600041EA0C01802E08BF002614B208BFC3F83E
:1037700010610AB141F4C05190F82AC04FEACC0C54
:10378000CDB1124B6344002589B223F8141090F890
:103790002D308168013B80F82D308B6890F83240E5
:1037A000013B80F824508B601CB182F0010280F84C
:1037B0002E2070BC7047064B6344E4E741F4A05CE4
:1037C00080F83130AEE700BFF816002080001050BE
:1037D00084001050034A044992F8323182F83031A3
:1037E0000B607047F816002000001150704700BFB2
:1037F0000020704770B5074C074D0646AC4204D216
:1038000054F8043B9847AC42FAD33346BDE87040C5
:10381000184700BF1CAE001030AE0010F0B50168B4
:10382000234DB0F828C0B5F8342190F8327059B360
:10383000002691F802E00EF00F03DB0003F1A04335
:1038400003F58013C3F880600EF00F04C3F88460A2
:10385000028387B99444A5F834C15CB14FF0204489
:10386000C97890F8330042EA81622243C0B1002156
:103870001A605960F0BD02EB4C0CA5F834C1002C65
:10388000F8D04FF06044EBE70A4BC3F88010C3F860
:10389000841002833FB102EB4C0CA5F834C1F0BD9B
:1038A00018605A60F0BD6244A5F83421F0BD00BF35
:1038B000F816002000001050164B30B41A6C032488
:1038C000B2F5803F3CBF4FF480321A64124B114A6C
:1038D000DC63536CDC07FCD5D36B104C83EA4013DC
:1038E00003F0E003E363D36B0A4A83F0010303F0C0
:1038F0000303E363536C9B07FCD54FF400644FF460
:103900008033074D0748C5F8E410C463136430BC26
:10391000704700BF0000014000300140001001402E
:10392000F8160020002001404249434A0B68F0B5D8
:1039300023F001030B60D2ED397A404C404D237FD8
:10394000F8EE676A002B13680BBF042108210127DA
:1039500002270CBF02260426AB4283B067D05DD895
:10396000384DAB4261D0384DAB4208BF314601FB08
:1039700003F3DB0107EE903AF8EE677A9FED336AC6
:1039800086EEA77A77EE067ABCEEE77A17EE103A63
:10399000217F9CB2002C46D0F6EEE76A9FED2C7A90
:1039A00077EEE67A67EE877AFCEEE77ACDED017A7C
:1039B0009DF8041009024FF000454FF0013C10271C
:1039C0004FF4807E1B4B41EA0441C2F838111C6859
:1039D00000F01F0024F001041C60C3F8C810D2F8E6
:1039E00040611C4CC3F8D060D2F83C611A49C3F85E
:1039F000CC60D2F84421C3F8DC20C4F8D050C4F81D
:103A0000D050C3F808C00F60C1F800E0C3F8D80078
:103A10001A6842F001021A6003B0F0BD0F4DAB42CC
:103A200008BF3946A3E72146C5E731469FE7394637
:103A30009DE700BF00002050F81600201011002064
:103A400010B1020088580100007701000000003B1F
:103A500000008043001020500020205000EE0200A3
:103A60004289B2EB214F35DD42690B1403EB43036E
:103A700010B502EBC3030469EFF3108C72B6D4E8FF
:103A8000CFEF0122BEF1000FF9D1C4E84E2FBEF1F5
:103A9000000FF4D1BFF35F8F5A8889B292B291427E
:103AA00006D000230269C2E88F3F8CF3108810BD56
:103AB00041F4004159800122002301698271C1E86B
:103AC0008F3F8CF31088C368017803F501538A4057
:103AD0005A6010BD704700BF2DE9F0476F4B82B0B0
:103AE0005C6A2246996A5C6A9442FAD16C4EB36869
:103AF000EFF3108272B6D3E8CF5F0120002DFAD128
:103B0000C3E8450F002DF6D1BFF35F8F96F90C3057
:103B1000002BC0F2A3800020B568C5E88F0F82F3A8
:103B200010884FF0504292F90080984503D1002050
:103B300002B0BDE8F087B268EFF3108372B6D2E846
:103B4000CF5F0120002DFAD1C2E8450F002DF6D13C
:103B5000BFF35F8F96F90C20002A4EDB4FF0FF3544
:103B60006FF000404F4A504F11EB020A44F100043D
:103B7000554570EB04023CBF0446AA46DFF830917D
:103B8000464D0021B268C2E88F1F83F31088EFF31F
:103B90000583DBB2B3B93A6997F804C0536A194692
:103BA000906A536A8B42FAD10CF1040152F8212039
:103BB000121ABAEB000064EB0303904273F10003A6
:103BC00024DB20BF6B6AA34204D3AA6A5245AED25B
:103BD000A342ACD1B268EFF3108372B6D2E8CF0F34
:103BE00001210028FAD1C2E8401F0028F6D1BFF316
:103BF0005F8F96F90C20002AC3DA0022B16886F89C
:103C00000C80C1E88F2F83F3108831E06B6A1A466D
:103C1000A96A6B6A9342FAD10022BAEB010164EB04
:103C20000303934228DBCDE90092234652461F4806
:103C3000FDF796FE011E1FDD6B6A9C4228D920BF4E
:103C40001A48FFF70DFF6B6A9C42C3D8AA6A524517
:103C5000BFF46DAF9C427FF46AAFBBE74FF05040BA
:103C600000680023B1683073C1E88F3F82F3108889
:103C7000012002B0BDE8F087084B5A6AA242A9D3DE
:103C80009B6A5345BFF453AFA2427FF450AFA1E704
:103C9000AA6A5245D4D29C42D2D1D0E700000B4050
:103CA000E816002040420F001011002014110020DF
:103CB000291A001038B550252C4C2A46002104F54D
:103CC000A47006F0C7FD2A463025002104F5CC700B
:103CD00006F0C0FD2A46002104F5F47006F0BAFD96
:103CE0002A464025002104F5067006F0B3FD2A4659
:103CF000002104F5127006F0ADFD2A46002104F5FE
:103D0000227006F0A7FD2A46002104F5327006F065
:103D1000A1FD2A46002104F5427006F09BFD2A46CB
:103D2000002104F5527006F095FD04F562704CF226
:103D300020042A46002106F08DFD224600210C4871
:103D400006F088FD224646F210040021094806F0DC
:103D500081FD22460021084806F07CFD2246BDE890
:103D600038400021054806F075BD00BFF816002058
:103D7000A88A022088CA0120786A0120680A0120E6
:103D80000023C0E900128360C36003610B7BC0E9BC
:103D900002337047F8B515460E463422002104461A
:103DA0001F4606F057FD01234022F1B284F833503C
:103DB0005D4005EB410584F82A1084F82C502285DB
:103DC000678384F83230F8BD2DE9F8430025C0E957
:103DD0000012C0F81150C0F80950C0F80D504561EC
:103DE000037223B30C46164640274FF48068151F14
:103DF00023781C446378052BFAD1A178A388CA09DB
:103E0000686801F00F01FFF7C5FF6A6805F1040952
:103E10001460E37803F00303012B04D0AE4217854E
:103E200005D04D46E4E7AE42A2F82880F9D1BDE8BE
:103E3000F88300BF2DE9F041044615460E463422B2
:103E4000002198469DF8187006F004FD4023F1B259
:103E500084F8335085F0010505EB410584F82A10FC
:103E600084F82C502385A4F81A8084F83270BDE8B9
:103E7000F08100BF70B51449144C154D641AA6109A
:103E8000442E324628BF44222846920006F0E4FE23
:103E9000B4F5867F13D80F4AC6F1440112D02B190E
:103EA000480803EBC000C3E9002208338342FAD17B
:103EB000CB0704D521F00103334445F82320064BFA
:103EC0009D6070BD4323F8E7000000101001001052
:103ED000000000201101001000ED00E000B9704763
:103EE00003F02ABC034AD2F82838002BFBD0BFF3DA
:103EF0005F8F704700000E40021E38B50C4618DA7E
:103F0000C1F3C7537F3B084610D4D3F117030DD438
:103F10004FF0010C0CFA03FC0CF1FF3C1CEA010F02
:103F200004D1172B24D0D840C30721D402F100427A
:103F3000104607EE904AFDEEE77A12F0FF4317EEC7
:103F4000901A1DD0B3F1FF4F1AD0C2F31603BBB9BC
:103F5000D20D7F3A01F3080101FB02F303F17F0266
:103F6000002A38DDFE2A38DCDB0503F17E5038BD3F
:103F7000214602F10040FFF7BFFF00F1004038BDCD
:103F8000B1B101F12003402B15D906F019FF05F05E
:103F9000B0FC02460D462046144606F011FF2246AC
:103FA0002B4605F097F805F026FB05F007F938BD1C
:103FB0004FF07E5038BD002903DBBDE83840FEF7E6
:103FC00021B807EE100AF7EE007AC7EE877A494269
:103FD00017EE900AF1E7002038BD4FF0FF4038BDE2
:103FE000F0B590F8337090F82A20054690F83260CA
:103FF00083B0D300002F46D0384951F832200B440B
:1040000012F0042F34D0002E46D195F82B3083F0D7
:10401000010385F82B303249D1F810312BB1002340
:10402000D1F8102101339342FAD30023012495F8EB
:104030002C20C1F810312B4B2B4994402B485C6647
:104040000C66436E1C4207D1294B01E0013B2CD08A
:104050000C66426E2242F9D0224B1C665C6695F8D3
:104060002A20F7B9A3F59733A3F5BE73D200134402
:10407000012100220E441A6085F82D60EA8585F83A
:10408000311003B0F0BD154A04339958134411F0B0
:10409000042FEDD0002EB8D095F82D30012BBAD1D9
:1040A000B3E70E4B03EBC203E2E7124803F04EFC0A
:1040B0000E4911480B6E496E104A009195F8331065
:1040C000002908BF024695F82A100D4803F03EFC6F
:1040D00095F8337095F83260BEE700BF800010504D
:1040E000F81600200030115000201150000011502F
:1040F0009F86010068AE00103CAE001038AE001084
:1041000040AE00108268002A00F094802DE9F84348
:104110000446494D494E4A4F9368BBB194F82D80EF
:10412000B8F1000F12D094F830307BB994F83330E6
:1041300073B10121136820461B681174984794F8E5
:104140002D30434502D0A268002AE5D1BDE8F883AE
:10415000117C002958D1002394F83120B4F81AE0DA
:1041600084F83030002A4AD14EF4806ED5F81031F0
:10417000D5F81031D5F8102194F82BC00132C5F8CC
:104180001021D5F81021BCF1000918BF4FF001092A
:10419000802A08BF0022C1F1000394F82E0003F426
:1041A00000438CF0010C43EA493384F82BC043EA06
:1041B0000E030FFA80FC08BFC5F8102108B143F4C4
:1041C000C05394F82A20D20001B904324FF0000EF7
:1041D00091199BB2A26808F1FF3821F81C3084F8CD
:1041E0002D80936894F83210013B84F824E09360AA
:1041F000002991D080F0010084F82E008CE74EF465
:10420000A05E84F83130B1E7384603F09FFB94F8A4
:1042100033100C4B0C4A0D48002918BF1A4694F86D
:104220002A1094F82D3003F091FB94F8331094F891
:104230002D8090E7704700BFF816002080001050D6
:1042400068AE001038AE00103CAE001074AE001026
:1042500010B5044694F83330084623B194F824305E
:1042600093B1002323841249FFF78AFD0021012224
:104270000368A0605B68E16082740BB120469847D8
:104280002046BDE810403DE7B4F81AC094F82E105F
:10429000238BA4F822C001B1218D03F1A04303F5C3
:1042A00080130B440121E36184F82410D9E700BF97
:1042B000ACED0010836870B504460D461BB11B6859
:1042C0009B6803B1984700262046A660FFF788FE4A
:1042D0000DB184F82B60002394F8302084F824304A
:1042E0002AB1226984F830300AB1204690470C4B3D
:1042F00093F831311BB1606808B1A26802B170BD9A
:104300000168FFF73DFD01210368A0605B68E26082
:1043100081740BB1204698472046BDE87040F1E615
:10432000F81600202DE9F0412C4FD7F810312BB1B1
:104330000023D7F8102101339A42FAD80026284DDD
:10434000C7F8106105F13C0887F83161C7F81061C2
:1043500055F8044FF4B1A36823B11B689B680BB1F7
:10436000204698472046A660FFF73AFE94F8303082
:1043700084F82B6084F824602BB1236984F83060C2
:104380000BB12046984797F831311BB1606808B1EE
:10439000A2689AB14545DBD1D7F81C3113B1002191
:1043A0001048984700214FF0FF320F4B0F4887F815
:1043B000301101609A651A65BDE8F0810168FFF768
:1043C000DFFC0123C4E90202837403685B680BB15C
:1043D000204698472046FFF795FEDBE7F8160020B9
:1043E000C02A00200C18002000301150000011508D
:1043F00010B51B4C94F843332BB194F83433C3B14C
:104400000023A4F83033002216481749FFF7B8FC00
:104410000121D4F84433C4F818035B6884F85613B8
:10442000C4F81C230BB134389847BDE810400F483E
:1044300068E6B4F82A1394F83E23B4F82833A4F8B5
:1044400032130AB1B4F83823012103F1A04303F574
:1044500080131344C4F82C3384F83413D0E700BF1E
:10446000F0270020342B0020ACED0010002B0020A2
:1044700010B51B4C94F88B332BB194F87C33C3B13B
:104480000023A4F87833002216481749FFF778FC78
:104490000121D4F88C33C4F860035B6884F89E1360
:1044A000C4F864230BB134389847BDE810400F4876
:1044B00028E6B4F8721394F88623B4F87033A4F89D
:1044C0007A130AB1B4F88023012103F1A04303F564
:1044D00080131344C4F8743384F87C13D0E700BF0E
:1044E000F02700207C2B0020ACED0010482B002092
:1044F00038B5294C024694F87C33DBB1D4F87433D8
:104500001A602648264AA4F878132649FFF738FC93
:1045100000210122D4F88C33C4F860035B68C4F82E
:10452000641384F89E230BB134389847BDE83840B3
:104530001D48E7E5B4F872C394F88B03B4F8703300
:10454000A4F87AC360B194F88603E0B903F1A043FC
:1045500003F58013C4F87433012084F87C03CFE79B
:1045600094F887539DB9042094F882C303F1A043C3
:1045700000EBCC0000EB45000C4D03F58013405BD5
:10458000C4F87433E8E7B4F880030344DEE7B4F812
:1045900080030344E7E700BFF02700207C2B0020C6
:1045A000F1430010ACED0010482B002080001050AB
:1045B00038B50B7803F06002202A01D0002038BD06
:1045C0004C78012C2BD004F17F02D2B2032AF5D80B
:1045D000823C03F01F03022C4ED8DFE804F00A02ED
:1045E0001400012BEAD149880020090A022912D0BF
:1045F00038BD012BE2D14988090A0229DED12E48B3
:10460000FFF776FF09E0012BD8D14988090A022972
:10461000D4D14FF48070FFF76BFF012038BDCA88FA
:10462000501E3E28CAD8254D888803F01F0385F800
:10463000B9334B88010A5BBA85F8BD2385F8BC13F2
:104640001F4A05F551701F49A5F8BA3385F8B843DC
:10465000FFF796FB0022D5F84433C5F818035B68D2
:10466000C5F81C2385F8564313B105F544709847E7
:104670001548FFF747FDD0E7012B0BD0022B9DD14A
:104680004B881B0A012B99D1104B03211868FFF7A7
:104690002FFFC2E74988090A012907D002298DD1D5
:1046A0000A4BB3F90A00FFF723FFB6E7074B187E62
:1046B000FFF71EFFB1E700BF00C0FFFFF02700209B
:1046C00071440010BCED0010002B0020F8160020F3
:1046D00038B50B7803F06002202A01D0002038BDE5
:1046E0004C78012C2BD004F17F02D2B2032AF5D8EA
:1046F000823C03F01F03022C4ED8DFE804F00A02CC
:104700001400012BEAD149880020090A022912D09D
:1047100038BD012BE2D14988090A0229DED12E4891
:10472000FFF7E6FE09E0012BD8D14988090A0229E2
:10473000D4D14FF48070FFF7DBFE012038BDCA886A
:10474000501E3E28CAD8254D888803F01F0385F8DF
:10475000B9334B88010A5BBA85F8BD2385F8BC13D1
:104760001F4A05F551701F49A5F8BA3385F8B843BB
:10477000FFF706FB0022D5F84433C5F818035B6841
:10478000C5F81C2385F8564313B105F544709847C6
:104790001548FFF7B7FCD0E7012B0BD0022B9DD1BA
:1047A0004B881B0A012B99D1104B03211868FFF786
:1047B0009FFEC2E74988090A012907D002298DD145
:1047C0000A4BB3F90A00FFF793FEB6E7074B187ED2
:1047D000FFF78EFEB1E700BF00C0FFFFF02700200B
:1047E00071440010BCED0010002B0020F8160020D2
:1047F00070B590F8303004468568CBB101210022B5
:104800006B68E97482607BB1184803F09FF8184B1D
:1048100094F83310174A1848002918BF1A4694F81C
:104820002A106B6803F092F80023C5E9023370BDCB
:10483000EB68002BFBD12A7C002AF8D101216B68A0
:10484000E97482601BB12946BDE870401847C26810
:10485000002AECD0C0E90223136891745B6803B1AD
:1048600098472046BDE870404CE400BF68AE001099
:1048700038AE00103CAE0010B4AE001070B5E8B118
:10488000334B03EB8003D3F8D04294F82D30A56866
:10489000013384F82D3015B32B7CB3B994F8333041
:1048A00084F82F200BB1AB682BB101222B68204676
:1048B0001B682A749847EB7C53B170BD254B03F1FC
:1048C0004804002908BF1C46DFE701236B7470BD54
:1048D000EB682046013BEB60BDE8704088E71E486E
:1048E00003F034F81D4B94F833101D4A1D4800297D
:1048F00018BF1A4694F82A1003F028F894F83030BC
:10490000D3B994F82A2094F833301AB91649C3F170
:1049100002008866B3B1154B03EBC20302201A688C
:10492000216942F400621A6084F830000029C4D082
:104930002046BDE870400847012BBED1022384F811
:10494000303070BD94F82A20094BD2001344E5E7BB
:10495000F0270020002B002068AE001038AE0010B9
:104960003CAE0010F0AE001000201150800010503E
:10497000840010502DE9F04F90F82440054685B092
:10498000002C00F05E81048CD0F81C8064080022AA
:10499000BB4903924B680F68182B00F08581202BD0
:1049A00000F00081B74EDFF8FCA2D6F8C80ED6F8AA
:1049B000D43E6408C01A9AF81C30002B40F0F781EE
:1049C000002304224FF001099E464FF0020C9B4643
:1049D000AD498F4200F0768200F27082AB498F427F
:1049E00002D0AB498F4201D162465B46002106F0FE
:1049F000F3F920EAE070B0F5607FA8BF4FF4607073
:104A00008442A8BF0446ECB108F10408A149A24AB7
:104A100008EB840038F9043C08F104081B040393F4
:104A200038F9063C9DED037A1B040393DDED037A10
:104A3000B8EEC77AF8EEE77A8045A1EC017AE2ECAD
:104A4000017AE7D1D6F8E43E9AF81CB00133C6F8F3
:104A5000E43E9AF81C308C4A002B0BBF0220042045
:104A60004FF0010C4FF0020C0CBF4FF004084FF058
:104A700008089742D6F8E81E5FFA8BFB00F0C78162
:104A800000F2C181814A974200F0D581804A974265
:104A900000F0D181B9429AF81C2000F0EB81B8F106
:104AA000080F40F01282BBF1000F00F0A5815A46BA
:104AB00041463846FBF7C0FB002800F09D81D0F846
:104AC0002490484606F07CF9CDE900010123CAF89C
:104AD0002090C6F8E87EA6F8EC8E86F8F0BEA6F820
:104AE000EE3E674BD86806F06BF963A3D3E9002369
:104AF00004F0F0FADDE9002304F0ECFA04F05EFBC8
:104B000007EE100AB4B1634BA10003EB8402F3EC8F
:104B1000017A67EE877A934243ED017AF7D15E4AD4
:104B200013460A44F3EC017A67EE877A934243ED29
:104B3000017AF7D12146594A564806F045F9584AB4
:104B40002146A2F6486006F03FF90022AC682846EC
:104B5000A36822740133A360E3680133E360FFF7C5
:104B600047FEE37C002B40F0448195F83360002E33
:104B700040F07B810023627C85F82430002A00F01D
:104B80006E813146637495F82D3095F82F2095F895
:104B90002A00013B82F0010285F82D3005B0BDE806
:104BA000F04F6BE6374EDFF8FCA0D6F8C80ED6F80B
:104BB000D43EA408C01A9AF81C30002B40F00081A3
:104BC000002304224FF001099E464FF0020C9B4641
:104BD0002D498F4200F06F8100F269812B498F428D
:104BE00002D02B498F4201D162465B46002106F07C
:104BF000F3F820EAE070B0F5607FA8BF4FF4607072
:104C00008442A8BF0446002C3FF41CAF214A224B2B
:104C100008EBC400D8F8001008F10808039158F810
:104C2000041C9DED037A0391DDED037AB8EEC77A9B
:104C3000F8EEE77A8045A2EC017AE3EC017AE9D15B
:104C400000E7428B90F83330B0F818804284002B94
:104C500000F0898090F82E30002B00F0C180038D89
:104C60002246434403F1A04808F58018C0F81C8090
:104C70008FE000BFAFF30080666666666666E63F5B
:104C8000F8160020E838002010B102008858010012
:104C900000770100B02B0020B0390020DC47002055
:104CA000F8470020101100208B4B8C4EA3FB0434DE
:104CB000D6F8C80EDFF844A2D6F8D43E6408C01A6D
:104CC0009AF81C30002B69D1002304224FF001090F
:104CD0009E464FF0020C9B4681498F4200F0E480D3
:104CE00000F2DE807F498F4202D07F498F4201D19E
:104CF00062465B46002106F06FF820EAE070B0F5EE
:104D0000607FA8BF4FF460708442A8BF0446002CA7
:104D10003FF498AE754A08F10608944604EB440047
:104D2000734908EB400038F8043C38F8069C38F822
:104D300002EC1A0642EA092203F47F43039243EA93
:104D40000E439DED037A0393DDED037AB8EEC77A47
:104D5000F8EEE77A08F106088045A1EC017AECEC60
:104D6000017AE0D16EE690F82F2092BB08F1A048BE
:104D700008F58018042395F82A005E4903EBC00368
:104D800003EB42035C5AC5F81C80C4F30902C4F368
:104D9000480401232A8485F82430F8E500230822FA
:104DA0004FF002099E464FF0040C9B4694E7002307
:104DB00008224FF002099E464FF0040C9B4607E67E
:104DC000002308224FF002099E464FF0040C9B4638
:104DD000FEE6038D434403F1A04808F58018C9E7B7
:104DE00008F1A04808F580181C461A46C0F81C8037
:104DF000CFE705B0BDE8F08F9FED357B4FF07E59D2
:104E00008DED007B62E63C4A97427FF443AEB942A7
:104E10009AF81C3001D0E04649E6B6F8EC3E63450E
:104E2000F9D1B6F8EE3E012BF5D196F8F03E5B4590
:104E30002FD0E0463BE6B9429AF81C3001D08046BC
:104E400035E6B6F8EC3E8342F9D1B6F8EE3E012BDA
:104E5000F5D196F8F03E5B451BD0804627E6284604
:104E600005B0BDE8F04FFFF74DB92846298CFEF795
:104E70004FFC7FE6B6F8EC2E42457FF410AEB6F854
:104E8000EE2E012A7FF40BAE96F8F02E5A457FF4F1
:104E900006AEDAF8200005F093FFCDE9000120E628
:104EA00015498F427FF426AF4A46734622E71249DE
:104EB0008F427FF49BAE4A46734697E60E498F4277
:104EC0007FF494AD4A46734690E54FF00408EEE552
:104ED000000000000000F03FABAAAAAAE8380020BA
:104EE00010B102008858010000770100B03900209D
:104EF000B02B00208000105000EE020010110020A6
:104F0000F8B590F824302DED028B0446002B78D0B4
:104F1000C669B1EE008AB0EE007AF2EE006AF7EEF2
:104F2000007A03225B4B5C491B7F0D68002B5B4BB7
:104F300007FE086A47FE877A08FE268A9D42228479
:104F400000F09F8058D8564B9D4200F09780554BFB
:104F50009D4206FE088A544B0027D3F8D40EC11791
:104F6000D0F5805061EB410104F080FD07EE100A9E
:104F7000C7EE087AFDEEE77A17EE903A4B494C4AB5
:104F80008B42B8BF0B46B3F57A7FD4BFED1805F559
:104F90007A75AD03A2FB0525AB093370E369AA0B53
:104FA0005A70E369AD0D9D70A5682046AB682F74FB
:104FB0000133AB60EB680133EB60FFF719FCEB7C6E
:104FC00083BB94F83360002E5ED100236A7C84F8A2
:104FD000243052B36B7494F82D3094F82F20013B99
:104FE00084F82D303146BDEC028B94F82A0082F013
:104FF0000102BDE8F84041E42E4B9D4207FE888A3D
:10500000A9E7428B90F83330068B4284A3B190F825
:105010002E306BB3038D334403F1A04606F58016A2
:10502000C6611AE0BDEC028BF8BD2046BDEC028BD8
:10503000BDE8F840FFF766B890F82F208AB906F16E
:10504000A04606F58016042394F82A001A4903EBBB
:10505000C00303EB42035B5AE661012384F824306A
:1050600057E7038D334403F1A04606F58016EAE7BF
:1050700006F1A04606F58016C661EEE7B0EE468A58
:1050800069E7B0EE678A66E72046218CFEF740FBB1
:105090009BE700BF10110020F816002010B102009D
:1050A0008858010000770100E838002018FCFFFF55
:1050B000D34D621000EE020080001050002370B546
:1050C000856804462B74FFF793FBEB7CC3B994F817
:1050D0003360DEB900236A7C84F824308AB16B74B3
:1050E00094F82D3094F82F20013B84F82D30314670
:1050F00094F82A0082F00102BDE87040FFF7BEBBC1
:1051000070BD2046BDE87040FEF7FCBF2046218CF4
:10511000FEF7FEFA00236A7C84F82430002AF0D0DF
:10512000DDE700BF2DE9F041856890F83310EE69A6
:105130006B69721E044682B003EA0207002965D03B
:1051400097B9AA699919914288BFD61A90F82A305E
:10515000022B00F2D58036B1AB6A294630465B6837
:10516000984700284FD16B696C6A94F8332094F803
:1051700024107ABB002900F09980228CA96A1A4475
:1051800028460B686A6198470023A56820462B745F
:10519000FFF72EFBEB7C002B35D194F83360002E0B
:1051A00040F0BD8000236A7C84F82430002A77D048
:1051B00031466B7494F82D3094F82F2094F82A001F
:1051C000013B82F0010284F82D3002B0BDE8F041CD
:1051D000FFF754BB002952D0E069AA69E96903F1DD
:1051E0004006964201F1FF3101EA030193BF4023DB
:1051F000D21A93B21A4623842B6A194405F02CFD67
:105200006B69228CBAE702B0BDE8F08190F82410F7
:10521000E9B9418B418490F82F00218B844608B175
:10522000B4F828C001F1A04101F5801161444FF0AC
:10523000010CE16194F82A10C90001EB40013A48E1
:105240000431095A84F824C0C1F309012184A969F1
:1052500040338B4247D311EA020807D0334802F0AB
:1052600075FB4146324802F071FB4646002F41D0A3
:10527000286A228CE169384405F0EEFC6BE7618B0B
:1052800094F82E20208B618402B1228D00F1A04081
:1052900000F5801010440122E06184F824209CE78E
:1052A000204602B0BDE8F041FEF72CBF628B94F8B7
:1052B0002F1062840846228B01B1208D02F1A0429A
:1052C00002F580120244E26194F82A20D20002EB37
:1052D000410215490432525A0121C2F309022284C3
:1052E00084F824104AE707F14003B34238BF002690
:1052F000002FBDD13946EA69286A05F0ABFAB7E755
:105300000A4802F023FBAA6900230192EA6994F893
:105310002A1008480092324602F018FB1BE720468C
:10532000218CFEF7F5F93DE78000105068AE0010C3
:1053300050AF001018AF0010F0B5634D83B095F872
:10534000822395F88B7395F88A634FEAC20C002F7D
:1053500052D05E4B53F83220634412F0042F53D1E5
:10536000002201211A600E44594885F88563A5F88A
:10537000862385F88913FEF733FE95F88833CBB979
:1053800095F8823395F88B131BB9524AC1F102008C
:105390009066DA0000296CD14F4B134401201A6843
:1053A000D5F8681342F400621A6085F8880309B1E1
:1053B0004A48884795F84033002B58D195F83A333E
:1053C00095F843131BB9434AC1F102009066DA0015
:1053D000002951D1404B134401201A68D5F82013FD
:1053E00042F400621A6085F8400300293FD0384833
:1053F00003B0BDE8F0400847344A0CF10403995863
:10540000134411F0042FABD0002E38D195F883331C
:1054100083F0010385F883333149D1F810312BB182
:105420000023D1F8102101339A42FAD80023012435
:10543000C1F8103195F8843326499C40294B2A48FD
:105440005C660C66436E1C4207D1284B01E0013BB1
:105450001DD00C66426E1442F9D0224B1C665C666D
:1054600097B9A3F59733A3F5BE73634478E703B008
:10547000F0BD164B134491E7144B1344ACE795F879
:105480008533012BC8D1C1E7104B634468E7184846
:1054900002F05CFA144917480B6E496E164A0091E7
:1054A00095F88B13002908BF024695F8821313481C
:1054B00002F04CFA95F882C395F88B7395F88A63DD
:1054C0004FEACC0CC9E700BFF02700208000105045
:1054D000002B00200020115084001050482B002089
:1054E000F816002000301150000011509F86010076
:1054F00068AE00103CAE001038AE001040AE001098
:10550000F0B5EFF30585EDB2EFF3108C72B62749D5
:10551000D1E8CF2F0123002AFAD1C1E8423F002A67
:10552000F6D1BFF35F8F224E40F0010EB4684AF609
:10553000AA2354F825701F4A0446A41A6441634301
:105540001B0D77455BB21DD092F906409C421ED0E0
:1055500092F912409C4225D092F91E409C4223D0E1
:1055600092F92A409C4208BF032411D0124A002419
:1055700092F82C5F82F82C3F8571C1E88F4F8CF335
:105580001088F0BDB2680D4C42F82540EEE70024CB
:1055900004EB440402EB8402FF2494714BF60154A3
:1055A0009480E3E70124F3E70224F1E78D1700205C
:1055B00000ED00E064110020E83800201101001027
:1055C00008B504F03DFBDFED047A07EE100A67EE44
:1055D000277A17EE900A08BDD95BDE3EB7EE007A57
:1055E00007EE900AF4EE477AF1EE10FA2CD011F0A3
:1055F000FF4238B50C460B4623D0FFEE006AF4EEAE
:10560000667AF1EE10FA20D1B2F1FF4F19D0CA0D2F
:10561000FF2A53D05C4912F0FF020BD07F3A7BD4B3
:10562000C2F11702002A05DD012000FA02F2013A58
:105630001A4271D12146BDE8384017EE900AFEF7B4
:105640005BBC17EE100A38BD704710F0FF4F0146E3
:105650001AD1002C4FEAD45225DB7F3A21D4D2F163
:1056600017021ED4012191400139214219D1172A74
:10567000E9D09FED467A24FA02F212F0010F47FEBC
:10568000277A17EE900A38BDC00DFF2824D19FED70
:10569000407ADFED3E7A002C67FE277A17EE900AFB
:1056A00038BD002038BDD2B27F3A07D4D2F11702FC
:1056B00004D4012090400138204202D04FF0FF4036
:1056C00038BD172A03D024FA02F2D307F6D501F029
:1056D000004040F0FF4038BD40F2FF1C604534D12F
:1056E000002CDEDBE20D7F3AE8D4D2F11702E5D4DC
:1056F0000121914001392142E0D1172A23D09FEDA9
:10570000247ADFED247A24FA02F212F0010F47FE28
:10571000277A17EE900A38BD0029CFDB17EE900AE2
:1057200005F04EFB04F0E5F802460D46204614460F
:1057300005F046FB22462B4603F0CCFC03F05BFF52
:1057400003F03CFD38BD144838BDE20DFF2A0ED0F1
:1057500062457FF460AFDFED0E7A9FED0C7AC0B248
:105760007F282CBF17EE100A17EE900A38BDDFED28
:10577000077A9FED077AC0B27F282CBF17EE100A78
:1057800017EE900A38BD00BF000080BF0000000087
:105790000000807F000080FF000080FF10B50446FD
:1057A00005F00AFB204604F057FB0D4B1A68EFF397
:1057B000108172B6D2E8CF4F0120002CFAD1C2E896
:1057C000440F002CF6D1BFF35F8FFF24002218682E
:1057D0001C71C0E88F2F81F3108840BF10BD00BF3F
:1057E000E8160020431E012B03D9042801D0002015
:1057F000704719420CBF01200020704738B513468E
:1058000002461846EFF3108572B60B4CD4E8CFCFA2
:105810000123BCF1000FF9D1C4E84C3FBCF1000FEB
:10582000F4D1BFF35F8F05F017FA0023C4E88F3F70
:1058300085F3108838BD00BF9117002038B5134696
:10584000024608461946EFF3108572B60A4CD4E8B2
:10585000CFCF0123BCF1000FF9D1C4E84C3FBCF11C
:10586000000FF4D1BFF35F8F05F0F6F90023C4E811
:105870008F3F85F3108838BD911700202DE9F04740
:1058800005460C4616469A46EFF3108972B6DFF8C5
:105890005880D8E8CF2F0123002AFAD1C8E8423F28
:1058A000002AF6D1BFF35F8F02463146204605F04D
:1058B00049FA58B12A462146304605F0CDF9002074
:1058C000C8E88F0F89F31088BDE8F08707462A469D
:1058D0005146204605F0C0F9C8E88F7F89F310884B
:1058E0000120BDE8F08700BF911700202DE9F041AD
:1058F0000446884616461846EFF3108772B60D4DDB
:10590000D5E8CF2F0123002AFAD1C5E8423F002A6B
:10591000F6D1BFF35F8F224605F09EF9224631464D
:10592000404605F099F90023C5E88F3F87F31088BA
:10593000BDE8F08191170020EFF3108272B60B4B97
:10594000D3E8CFCF0121BCF1000FF9D1C3E84C1F40
:10595000BCF1000FF4D1BFF35F8F4FF0000CD0E922
:105960000001C3E88FCF82F31088704791170020A1
:1059700030B414461D46EFF3108272B60B4BD3E8D9
:10598000CFCF0121BCF1000FF9D1C3E84C1FBCF10E
:10599000000FF4D1BFF35F8F0021C0E90045C3E8D9
:1059A0008F1F82F3108830BC704700BF9117002012
:1059B000F0B514461D46EFF3108C72B6DFF84CE0DC
:1059C000DEE8CF2F0123002AFAD1CEE8423F002A99
:1059D000F6D1BFF35F8FD0E90023D1E90076B3425F
:1059E00008BFBA4209D0D0E900230020C1E9002352
:1059F000CEE88F0F8CF31088F0BDC0E9004500237E
:105A0000CEE88F3F8CF310880120F0BD9117002065
:105A100030B514461D460246EFF3108C72B60B4BA0
:105A2000D3E8CF0F01210028FAD1C3E8401F002896
:105A3000F6D1BFF35F8F4FF0000ED2E90001C2E94B
:105A40000045C3E88FEF8CF3108830BD911700201C
:105A5000F0B58446EFF3108E72B60C4CD4E8CF0F3D
:105A600001210028FAD1C4E8401F0028F6D1BFF375
:105A70005F8FDCE90001861843EB01070025CCE9C4
:105A80000067C4E88F5F8EF31088F0BD9117002087
:105A9000F0B58446EFF3108E72B60C4CD4E8CF0FFD
:105AA00001210028FAD1C4E8401F0028F6D1BFF335
:105AB0005F8FDCE90001861A61EB03070025CCE962
:105AC0000067C4E88F5F8EF31088F0BD9117002047
:105AD000F0B50146EFF3108C72B60E48D0E8CF5FF8
